:100000000C946D010C9499080C9472080C94950151
:100010000C9495010C9495010C94F50A0C9495019F
:100020000C9495010C9495010C9495010C949501F8
:100030000C9495010C9495010C9495010C949501E8
:100040000C9428080C9495010C946E0D0C94480D9A
:100050000C9495010C9495010C9495010C949501C8
:100060000C9495010C9495010001020408102040A5
:10007000801B36637C777BF26B6FC53001672BFE8C
:10008000D7AB76CA82C97DFA5947F0ADD4A2AF9CEE
:10009000A472C0B7FD9326363FF7CC34A5E5F171C5
:1000A000D8311504C723C31896059A071280E2EBCE
:1000B00027B27509832C1A1B6E5AA0523BD6B3295E
:1000C000E32F8453D100ED20FCB15B6ACBBE394AEB
:1000D0004C58CFD0EFAAFB434D338545F9027F50F2
:1000E0003C9FA851A3408F929D38F5BCB6DA2110F1
:1000F000FFF3D2CD0C13EC5F974417C4A77E3D6489
:100100005D197360814FDC222A908846EEB814DEB8
:100110005E0BDBE0323A0A4906245CC2D3AC629142
:1001200095E479E7C8376D8DD54EA96C56F4EA652C
:100130007AAE08BA78252E1CA6B4C6E8DD741F4B2B
:10014000BD8B8A703EB5664803F60E613557B98699
:10015000C11D9EE1F8981169D98E949B1E87E9CE46
:100160005528DF8CA1890DBFE6426841992D0FB05B
:1001700054BB1652096AD53036A538BF40A39E81BC
:10018000F3D7FB7CE339829B2FFF87348E4344C433
:10019000DEE9CB547B9432A6C2233DEE4C950B4254
:1001A000FAC34E082EA16628D924B2765BA2496D07
:1001B0008BD12572F8F66486689816D4A45CCC5D61
:1001C00065B6926C704850FDEDB9DA5E154657A7DA
:1001D0008D9D8490D8AB008CBCD30AF7E45805B849
:1001E000B34506D02C1E8FCA3F0F02C1AFBD03011D
:1001F000138A6B3A9111414F67DCEA97F2CFCEF048
:10020000B4E67396AC7422E7AD3585E2F937E81CA5
:1002100075DF6E47F11A711D29C5896FB7620EAA85
:1002200018BE1BFC563E4BC6D279209ADBC0FE7826
:10023000CD5AF41FDDA8338807C731B112105927F2
:1002400080EC5F60517FA919B54A0D2DE57A9F9327
:10025000C99CEFA0E03B4DAE2AF5B0C8EBBB3C8398
:10026000539961172B047EBA77D626E1691463553A
:10027000210C7D00000000240027002A000000005F
:1002800000250028002B00040404040404040402D4
:100290000202020202030303030303010204081023
:1002A00020408001020408102001020408102000F0
:1002B0000000080002010000030407000000000025
:1002C0000000000001020304051112131415160AA0
:1002D0000B0C0D0E0F00C817EE1211241FBECFEF2E
:1002E000D8E0DEBFCDBF11E0A0E0B1E0E4EBF7E382
:1002F00002C005900D92AE3DB107D9F725E0AEEDF5
:10030000B1E001C01D92A334B207E1F711E0CCE6E1
:10031000D1E004C02197FE010E948F19CB36D1078E
:10032000C9F70E94F2120C94CD1B0C940000FC0142
:10033000918D228D892F90E0805C9F4F821B9109C7
:100340008F739927089580E090E0892B29F00E940F
:10035000D50C81110C940000089590E0FC01E1554A
:10036000FD4F3491FC01E556FD4F2491FC01E95706
:10037000FD4FE491EE2309F43BC0332339F13330D0
:1003800091F038F43130A9F0323001F584B58F7D29
:1003900012C0373091F03830A1F03430B9F4809188
:1003A00080008F7D03C0809180008F7780938000D4
:1003B0000DC084B58F7784BD09C08091B0008F7760
:1003C00003C08091B0008F7D8093B000F0E0EE0F0D
:1003D000FF1FE358FD4FA591B4918FB7F894EC91AE
:1003E000611103C020952E2301C02E2B2C938FBFAB
:1003F00008958230910538F0880F991F880F991F52
:1004000005970197F1F708950895680F791F8617EA
:10041000970721F0FC0110820196F9CF0895CF9340
:10042000DF93EC018A819B81DC01ED91FC910684D4
:10043000F785E02D099560E170E0CE0104960E94F9
:10044000050260E170E0CE0144960E94050280E161
:100450008CA3DF91CF9108956F927F928F929F929C
:10046000AF92BF92CF92DF92EF92FF920F931F93C2
:10047000CF93DF937C016B01EA0189014C0184E198
:10048000880E911C5701A4E0AA0EB11C0031110581
:1004900030F1F70182819381DC01ED91FC910484BC
:1004A000F585E02DAE01B40109953E019401C60128
:1004B000D5016096F30151913F01F90141919F01EE
:1004C0006C914627FC014193CF015D936C167D062C
:1004D00089F7F0E1CF0ED11C00511109D7CFDF9180
:1004E000CF911F910F91FF90EF90DF90CF90BF9031
:1004F000AF909F908F907F906F9008954F925F92F2
:100500006F927F928F929F92AF92BF92CF92DF9223
:10051000EF92FF920F931F93CF93DF936C014B01E8
:100520005A012901C0E0D0E08C010C5F1F4F3C0153
:1005300084E1680E711CC2018C1B9D0B409730F149
:10054000D501AC0FBD1F7801F8018D9190818927ED
:100550008193E615F705C9F7D60112968D919C9106
:100560001397DC01ED91FC910284F385E02DA80145
:10057000B8010995F401EC0FFD1FD7018D917D01A4
:100580008193A615B705C9F76096D5CFDF91CF91B6
:100590001F910F91FF90EF90DF90CF90BF90AF90A1
:1005A0009F908F907F906F905F904F9008950F93E2
:1005B0001F93CF93DF9300D000D0CDB7DEB78C016F
:1005C000DC0112968D919C911397DC01ED91FC91C9
:1005D0000480F581E02D4B835C8369837A830995E0
:1005E0004B815C8169817A81409791F4F801828125
:1005F0009381DC01ED91FC910084F185E02D0F9059
:100600000F900F900F90DF91CF911F910F91099450
:1006100080E00F900F900F900F90DF91CF911F917E
:100620000F91089580E190E00895DC0112968D917C
:100630009C911397DC01ED91FC910680F781E02DF0
:100640000994FC01628170E06F5F7F4F84E0660F68
:10065000771F8A95E1F7838194810C9405022F928C
:100660003F924F925F926F927F928F929F92AF9242
:10067000BF92CF92DF92EF92FF920F931F93CF938F
:10068000DF9300D0CDB7DEB78C01FB0140818181C3
:1006900092815381642E712C9301220F331F7BE1D1
:1006A000272E239E302C11243226A82FB0E09D0146
:1006B000220F331F239EB02C1124B226492E512C19
:1006C0009201220F331F239E902C11249226652F16
:1006D00070E09B01220F331F239E202C1124222621
:1006E0009301220F331F220F331F3A8329836D0199
:1006F000CC0CDD1CCC0CDD1CED2CFF24F701EF5CD9
:10070000FE4F80808C246201CC0CDD1CCC0CDD1CE7
:10071000ED2CFF2497012F5C3E4FF901A080AC2403
:100720006B01CC0CDD1CCC0CDD1CED2CFF249701E7
:100730002F5C3E4FF901D080DC247301E3E0EE0C26
:10074000FF1CEA95E1F72F2D33272F5C3E4FF9016F
:100750002081E2263D01A3E0660C771CAA95E1F713
:10076000A72DBB27AF5CBE4FAC91A62523E0440C60
:10077000551C2A95E1F7E52DFF27EF5CFE4FE08140
:100780004E26E3E0660F771FEA95E1F7E72FFF2794
:10079000EF5CFE4FE0816E2729813A81632E77243A
:1007A000F301EF5CFE4F3081298123272E25392F5D
:1007B000382735273A253A273425362733253B2550
:1007C0003227F8013083392F3427352738253D2546
:1007D0003E253A2734253627B326B924B182482747
:1007E0005427A526AA26A424A6269A24922429259D
:1007F00022839427C92EC824CD24EC24AE254A2672
:1008000064256325262F222523830F900F90DF91E7
:10081000CF911F910F91FF90EF90DF90CF90BF90FD
:10082000AF909F908F907F906F905F904F903F9090
:100830002F9008950F931F93CF93DF93FC01DB015B
:100840001C9111960C91119712967C911297139608
:10085000BC91812F90E0880F991FCBE1C99F602D3B
:1008600011246827402F50E0440F551FC59F802D4D
:1008700011244827272F30E0220F331FC39F802DDC
:10088000112428278B2F90E0880F991FC99FC02D16
:1008900011248C27972F90279B27962794279083A6
:1008A000972F91279B27492742274183A12FA027D4
:1008B000BA272B27282722837A277627872783831F
:1008C000DF91CF911F910F910895CF93DF93DC01BA
:1008D000EB01E881F0E0ED58FE4FE491EC93ED85FB
:1008E000F0E0ED58FE4FE4911196EC931197EA85F4
:1008F000F0E0ED58FE4FE4911296EC931297EF81E1
:10090000F0E0ED58FE4FE4911396EC931397EC81D1
:10091000F0E0ED58FE4FE4911496EC931497E981C2
:10092000F0E0ED58FE4FE4911596EC931597EE85A7
:10093000F0E0ED58FE4FE4911696EC931697EB8598
:10094000F0E0ED58FE4FE4911796EC931797E88589
:10095000F0E0ED58FE4FE4911896EC931897ED8176
:10096000F0E0ED58FE4FE4911996EC931997EA8167
:10097000F0E0ED58FE4FE4911A96EC931A97EF854C
:10098000F0E0ED58FE4FE4911B96EC931B97EC853D
:10099000F0E0ED58FE4FE4911C96EC931C97E9852E
:1009A000F0E0ED58FE4FE4911D96EC931D97EE811B
:1009B000F0E0ED58FE4FE4911E96EC931E97EB810C
:1009C000F0E0ED58FE4FE4911F96EC93DF91CF914C
:1009D00008958F929F92AF92BF92CF92DF92EF9243
:1009E000FF920F931F93CF93DF93CDB7DEB7A097FE
:1009F0000FB6F894DEBF0FBECDBF4C015B01FC010A
:100A00008281E380F480F0E18F9FE00CF11C1124DF
:100A1000BA0197016E0181E1C80ED11CD60190E1A7
:100A20009C0DFB018191BF01F90141919F01842738
:100A30008D939A13F6CFB6018E010F5F1F4FC80139
:100A40000E946504F401928080E1882E800ED70117
:100A50005097F1E0F91538F57D01F8018D919081FD
:100A6000892781938E12FACFB801C6010E942F0305
:100A7000BE016B5F7F4FCE0145960E942F03BE01E2
:100A8000675F7F4FCE0149960E942F03BE01635FCF
:100A90007F4FCE014D960E942F03B601C8010E94E0
:100AA00065049A94D4CFC501F80121918F013D913D
:100AB0002327FC012193CF01AE15BF05A9F7A0960E
:100AC0000FB6F894DEBF0FBECDBFDF91CF911F915F
:100AD0000F91FF90EF90DF90CF90BF90AF909F90DD
:100AE0008F900895CF93DF93DC01EB01E881F0E074
:100AF000ED58FF4FE491EC93ED81F0E0ED58FF4F9E
:100B0000E4911196EC931197EA85F0E0ED58FF4FD0
:100B1000E4911296EC931297EF85F0E0ED58FF4FB9
:100B2000E4911396EC931397EC81F0E0ED58FF4FAE
:100B3000E4911496EC931497E985F0E0ED58FF4F9B
:100B4000E4911596EC931597EE85F0E0ED58FF4F84
:100B5000E4911696EC931697EB81F0E0ED58FF4F79
:100B6000E4911796EC931797E885F0E0ED58FF4F66
:100B7000E4911896EC931897ED85F0E0ED58FF4F4F
:100B8000E4911996EC931997EA81F0E0ED58FF4F44
:100B9000E4911A96EC931A97EF81F0E0ED58FF4F2D
:100BA000E4911B96EC931B97EC85F0E0ED58FF4F1A
:100BB000E4911C96EC931C97E981F0E0ED58FF4F0F
:100BC000E4911D96EC931D97EE81F0E0ED58FF4FF8
:100BD000E4911E96EC931E97EB85F0E0ED58FF4FE5
:100BE000E4911F96EC93DF91CF910895AF92BF925D
:100BF000CF92DF92EF92FF920F931F93CF93DF93E9
:100C0000CDB7DEB7A0970FB6F894DEBF0FBECDBF4D
:100C10009C01B62EC72EDC0113960D911C911497E2
:100C2000BA01A8017E01B1E1EB0EF11CD70180E110
:100C3000A82EAE0CFB019191BF01FA018191AF0189
:100C400098279D93AA12F6CF005F1F4FD9011296E5
:100C5000DC90B1E0B701CE010196BD1548F50E94C8
:100C60007205BE016F5F7F4FC7010E941A04BE016B
:100C70006B5F7F4FCE0145960E941A04BE01675FED
:100C80007F4FCE0149960E941A04BE01635F7F4FD9
:100C9000CE014D960E941A04D801F7018D919081E2
:100CA00089278193AE12FACF005F1F4FDA94D1CF1C
:100CB0000E9472058B2D9C2DFE01319630E13E0F76
:100CC0002191D8014D918D012427DC012D93CD0177
:100CD0003E13F6CFA0960FB6F894DEBF0FBECDBF81
:100CE000DF91CF911F910F91FF90EF90DF90CF9008
:100CF000BF90AF90089580E190E0089580E190E08A
:100D0000089580912C0290912D021816190634F442
:100D100083E690E090932D0280932C0208950E9428
:100D20008C1B4031510569F4DC01149620E1FB0174
:100D300001900D922A95E1F720E1FC0124A381E0C6
:100D4000089580E008952F923F925F926F927F9274
:100D50008F929F92AF92BF92CF92DF92EF92FF92CB
:100D60000F931F93CF93DF934031510509F095C046
:100D70009C012B5F3F4F40E1FB01D90101900D9297
:100D80004A95E1F7AC014A5E5F4FDC015796EC01F2
:100D900068964C0165EA860E911C5524539484E0B4
:100DA000782ECE0106971C010196FE0134975F0153
:100DB000BE01675071096B0131967F018E010251AE
:100DC00011096A507109F4E07F123FC0F10170808F
:100DD000E72DF0E0ED58FF4F6490E52DF0E0E85985
:100DE000FF4F7490FC018081E82FF0E0ED58FF4F39
:100DF0008491FA018083F5018081E82FF0E0ED58BD
:100E0000FF4FE491EC93F6018081E82FF0E0ED587C
:100E1000FF4FE491E8837624F90180817826F70179
:100E20007082FA019081F80180818927FA0180831C
:100E30009C91FB01808189278C93988131968081D8
:100E4000892788835394712C1BC0F601C080F90157
:100E5000D080DC24F701D082F8011081F1010081FB
:100E60001027FA011083FB016081FC018081862735
:100E70008C93FE0170979081F5018081892788838A
:100E80002C5F3F4F73944C5F5F4F14962496281548
:100E9000390509F086CF81E001C080E0DF91CF9174
:100EA0001F910F91FF90EF90DF90CF90BF90AF9088
:100EB0009F908F907F906F905F903F902F900895BC
:100EC000FC01848DDF01A80FB11DA35ABF4F2C91E7
:100ED000848D90E001968F739927848FA689B789B6
:100EE0002C93A089B1898C9180648C93938D848D8F
:100EF000981306C00288F389E02D80818F7D80835E
:100F00000895CF93DF9390E0FC01E556FD4F2491C7
:100F1000FC01E957FD4F8491882361F190E0880F2F
:100F2000991FFC01ED58FD4FC591D491FC01E35888
:100F3000FD4FA591B491611109C09FB7F8948881C4
:100F4000209582238883EC912E230BC0623061F4BC
:100F50009FB7F8943881822F809583238883EC9102
:100F60002E2B2C939FBF06C08FB7F894E8812E2BB1
:100F700028838FBFDF91CF9108953FB7F894809178
:100F8000E8019091E901A091EA01B091EB0126B549
:100F9000A89B05C02F3F19F00196A11DB11D3FBFB1
:100FA000BA2FA92F982F8827820F911DA11DB11D3F
:100FB000BC01CD0142E0660F771F881F991F4A953B
:100FC000D1F708958F929F92AF92BF92CF92DF9206
:100FD000EF92FF926B017C010E94BD074B015C0107
:100FE000C114D104E104F104F1F00E94BD07DC0159
:100FF000CB0188199909AA09BB09883E9340A1052C
:10100000B10570F321E0C21AD108E108F10888EEB9
:10101000880E83E0981EA11CB11CC114D104E10408
:10102000F10419F7DDCFFF90EF90DF90CF90BF90E4
:10103000AF909F908F9008952FB7F8946091E4013E
:101040007091E5018091E6019091E7012FBF08952D
:101050001F920F920FB60F9211242F933F938F93ED
:101060009F93AF93BF938091E4019091E501A0918C
:10107000E601B091E7013091E30123E0230F2D3722
:1010800020F40196A11DB11D05C026E8230F02968C
:10109000A11DB11D2093E3018093E4019093E5012C
:1010A000A093E601B093E7018091E8019091E901F6
:1010B000A091EA01B091EB010196A11DB11D8093B1
:1010C000E8019093E901A093EA01B093EB01BF918D
:1010D000AF919F918F913F912F910F900FBE0F90E5
:1010E0001F9018951F920F920FB60F9211242F93F5
:1010F0003F934F935F936F937F938F939F93AF93A0
:10110000BF93EF93FF93E0910501F09106010995DC
:10111000FF91EF91BF91AF919F918F917F916F91CF
:101120005F914F913F912F910F900FBE0F901F90A5
:1011300018951F920F920FB60F9211242F933F9381
:101140004F935F936F937F938F939F93AF93BF93CF
:10115000EF93FF93E0910301F09104010995FF9152
:10116000EF91BF91AF919F918F917F916F915F911F
:101170004F913F912F910F900FBE0F901F90189598
:10118000CF93DF93CDB7DEB728970FB6F894DEBFC5
:101190000FBECDBFAC019CEC99839A839B839C834B
:1011A0009D831E821F8218869A01E1E02115310578
:1011B000C9F0611103C04115510569F4D901A77047
:1011C000BB27A75CBE4F8C91A1E0B0E0AC0FBD1F68
:1011D000AE0FB11D8C9383E0369527958A95E1F784
:1011E000EF5FE4CF611102C0452B39F4E62FF0E048
:1011F000E75CFE4F8081898305C0F0E0E85CFE4F2C
:1012000080818A8329813A814B815C816D817E81D5
:101210008F81988528960FB6F894DEBF0FBECDBF9C
:10122000DF91CF910895FC012081318182819381EA
:101230002817390719F0822F0C94AD010895CF9328
:10124000DF93EC019CB59F7D9CBD9CB5937F9CBDBD
:101250009CB59C7F9CBD9DB591609DBD8A810E947F
:10126000AD018C899D89DF91CF910C94F90161E0EA
:101270000C941F0960E00C941F098EBD00000DB492
:1012800007FEFDCF8EB50895EF92FF921F93CF9387
:10129000DF931F92CDB7DEB77C0169830E943A09C4
:1012A0006981862F0E943D09182FC7010E943709C6
:1012B000812F0F90DF91CF911F91FF90EF900895B4
:1012C00061EE0C944409EF92FF921F93CF93DF934A
:1012D00000D0CDB7DEB77C014A8369830E943A090A
:1012E0006981862F8F7180620E943D09182F4A8183
:1012F000842F0E943D09C7010E943709812F0F905A
:101300000F90DF91CF911F91FF90EF900895CF92B2
:10131000DF92EF92FF920F931F93CF93DF9300D052
:101320001F92CDB7DEB77C01142F2A835B836983BC
:101330000E943A096981862F8F7180620E943D095F
:10134000082FC12E5B81D52E2A81120F1C1531F07A
:10135000F60181916F010E943D09F8CFC7010E94FB
:101360003709802F0F900F900F90DF91CF911F9131
:101370000F91FF90EF90DF90CF900895EF92FF9242
:101380001F93CF93DF931F92CDB7DEB77C016983A4
:101390000E943A096981862F8F710E943D098FEF63
:1013A0000E943D09182FC7010E943709812F0F9015
:1013B000DF91CF911F91FF90EF900895CF93DF932E
:1013C000EC0160E00E94BE0981FD0EC0482F426022
:1013D00060E0CE010E94630965E070E080E090E08B
:1013E000DF91CF910C94E207DF91CF910895CF93D5
:1013F000DF93EC0160E00E941309888999890E94BB
:10140000F9016DE1CE010E94BE0981FF07C0888904
:1014100099890E94F901CE010E94600960E0CE0125
:101420000E94BE09482F4E7F60E0CE010E946309F2
:1014300062E0CE010E94BE09E3ECF2E0E49141E0FB
:1014400050E001C0440FEA95EAF7482B62E0CE0174
:10145000DF91CF910C946309CF93DF93EC010E944D
:10146000DE0960E0CE010E94BE09482F416060E0C5
:10147000CE010E94630940E767E0CE010E94630944
:1014800061E0CE010E9413098985882349F02E85E9
:10149000AE01475F5F4F6AE0CE010E94870914C02A
:1014A00062E0CE010E94BE09E3ECF2E0E49121E0AB
:1014B00030E001C0220FEA95EAF72095422F482339
:1014C00062E0CE010E9463096DE1CE010E94BE0977
:1014D00081FF05C0CE01DF91CF910C946009DF91AF
:1014E000CF910895CF93DF93EC018CE691E099833F
:1014F000888360E170E0CE0104960E94050260E1FD
:1015000070E0CE014496DF91CF910C940502CF9309
:10151000DF93EC010E94720ACE01DF91CF910C940F
:101520002A1A2AEA31E0FC013183208360EB70E063
:1015300005960C940502CF93DF93EC010E94910A6B
:10154000CE01DF91CF910C942A1ACF93CFB7F894A4
:101550008091E201811127C0E1E9F2E08491E5EA9E
:10156000F2E09491E82FF0E0EE0FFF1FED58FD4FF1
:10157000A591B491EC91E92321F461E08AE00E9405
:10158000AD0161E08AE00E9481078CB580618CBD6D
:101590008CB580648CBD61E08DE00E94810761E0C4
:1015A0008BE00E9481078091E2018F5F8093E201CE
:1015B000CFBFCF910895CF93DF93EC018EEB91E0F5
:1015C00099838883CE0185960E94910ACE01DF918E
:1015D000CF910C94720ACF93DF93EC010E94DB0A47
:1015E000CE01DF91CF910C942A1A1F920F920FB661
:1015F0000F9211248F93F8940FB6F894A8958091C8
:101600006000886180936000109260000FBE789443
:101610008F910F900FBE0F901F901895CF93C82FEA
:1016200060E08DE494E00E94130960E08DE494E0B2
:101630000E94BE09482F4D7F60E08DE494E00E9437
:101640006309A89590917A009F7790937A00CF3F95
:1016500051F0F89414BE90916000986190936000EE
:10166000C0936000789483B7817F846083BF83B721
:10167000816083BF83B7816083BF889583B78E7F86
:1016800083BF83B78E7F83BF80917A008068809309
:101690007A008DE494E0CF910C94DE098EE480937F
:1016A0007C0080917A00806480937A0080917A0037
:1016B00086FDFCCF209178008091790030E0382BB6
:1016C00040E050E060E070E381E190E00E94E118CA
:1016D000C9010895CF92DF92EF92FF920F931F936B
:1016E000CF93DF933091E1019091E0012091DE01F1
:1016F0008091DF01A7E0B1E0ECEFF1E041E0542F91
:10170000530F58279527290F522F5695850F892754
:101710008D9381934F5F413191F7305F3093E101B9
:101720009093E0018093DF012093DE0180E1E7E008
:10173000F1E0A9E6B4E001900D928A95E1F780E12D
:101740008093890420E130E04CE052E06CEE71E0DF
:1017500085E694E00E947E02E0900001F090010195
:10176000C701019690930101809300010E941C081B
:10177000009106031091070320910803309109039B
:10178000DC01CB01801B910BA20BB30B4997A10588
:10179000B10520F40E94551087FFE8CF8BE193E05C
:1017A0000197F1F780910503846080930503809190
:1017B0000A0390910B030E94F70910E0D0E0C2E009
:1017C00080E2C82ED12CC13029F082E0D11105C0B1
:1017D00094E904C080E096E901C095E928E1D29F30
:1017E000B0011124A601461B570B4931510510F0D9
:1017F00048E150E028E0240F20930F0320910D03CF
:1018000030910E033093E3022093E2021092E5023E
:101810001092E402F092E702E092E6029093E8026E
:101820008093E9024115510531F064517E4F8AEEF3
:1018300092E00E94911B60E080E090E00E94C7115E
:1018400081110CC062E070E080E090E00E94E2074D
:101850001F5F133008F4B7CFD0E007C0C150DF5F7F
:10186000CC2311F010E0AFCFD1E08091050382FFCF
:101870001CC04091DC025091DD026091DE0270914B
:10188000DF0280910A0390910B030E943B0FD82F37
:1018900080910A0390910B030E942C0A60E08091D2
:1018A0000A0390910B030E94260F809105038B7F02
:1018B00080930503DD2379F0CC2359F00E941C08A6
:1018C00060930603709307038093080390930903C2
:1018D00002C081E001C080E0DF91CF911F910F91A4
:1018E000FF90EF90DF90CF900895CF92DF92EF922C
:1018F000FF920F931F93CF93DF936C017A018B01BB
:10190000C0E0D0E0CE15DF0589F0D8016D918D01E2
:10191000D601ED91FC910190F081E02DC601099571
:10192000892B11F47E0102C02196ECCFC701DF9113
:10193000CF911F910F91FF90EF90DF90CF9008957E
:10194000089580E090E00895FC01538D448D252F8B
:1019500030E0842F90E0821B930B541710F0CF9649
:10196000089501970895FC01918D828D981761F07B
:10197000828DDF01A80FB11D5D968C91928D9F5FC6
:101980009F73928F90E008958FEF9FEF0895FC0171
:10199000918D828D981731F0828DE80FF11D858D24
:1019A00090E008958FEF9FEF08958EE392E00E94FC
:1019B000970121E0892B09F420E0822F0895EF920E
:1019C000FF920F931F93CF93DF93EC0181E0888FF9
:1019D0009B8D8C8D981305C0E889F989808185FDE0
:1019E00024C0F62E0B8D10E00F5F1F4F0F731127D1
:1019F000E02E8C8DE8120CC00FB607FCFACFE889F8
:101A0000F989808185FFF5CFCE010E946007F1CF73
:101A10008B8DFE01E80FF11DE35AFF4FF0820B8F13
:101A2000EA89FB898081806207C0EE89FF89608333
:101A3000E889F98980818064808381E090E0DF918A
:101A4000CF911F910F91FF90EF900895CF93DF9367
:101A5000EC01888D8823C9F0EA89FB89808185FDA6
:101A600005C0A889B9898C9186FD0FC00FB607FC07
:101A7000F5CF808185FFF2CFA889B9898C9185FF48
:101A8000EDCFCE010E946007E7CFDF91CF9108959F
:101A90001F920F920FB60F9211242F933F934F93E3
:101AA0005F936F937F938F939F93AF93BF93EF93C6
:101AB000FF938EE392E00E946007FF91EF91BF9148
:101AC000AF919F918F917F916F915F914F913F91D6
:101AD0002F910F900FBE0F901F9018951F920F928D
:101AE0000FB60F9211242F938F939F93EF93FF9331
:101AF000E0914E02F0914F028081E0915402F0910A
:101B0000550282FD12C09081809157028F5F8F73C2
:101B100020915802821751F0E0915702F0E0E25C08
:101B2000FD4F958F8093570201C08081FF91EF9107
:101B30009F918F912F910F900FBE0F901F9018952E
:101B4000CF93DF93FC016091480470914904409168
:101B50004A04228180819181223028F0BC0181E0F9
:101B6000838340E026C020914B0430914C04EC016B
:101B7000C223D323A0910D03B0910E03CA17DB0734
:101B8000C1F4A9014095509563E0440F551F6A9533
:101B9000E1F748235923452B51F043E0220F331F2F
:101BA0004A95E1F72760BC016223732301C0BC01A1
:101BB00045E071836083428381E0DF91CF91089596
:101BC000EF92FF920F931F93CF93DF938C01E090DE
:101BD0000F03F12CE7012897DC0116962C918CE677
:101BE000820F833020F0283C09F0C9C003C024399B
:101BF00009F4DCC08BE6820F823018F0283C09F033
:101C00008AC0E091B403F091B503CE018E0F9F1FFF
:101C10008139910518F01092B303AFC09091B303CE
:101C2000992309F40BC1263929F0D80117968C9114
:101C30008913A3C02091B0033091B103D801149649
:101C40008D919C9115972817390709F096C08091BE
:101C5000B6039091B703AE016AEE72E08E0F9F1F3C
:101C60000E94911B8091B4039091B503C80FD91FB6
:101C7000D093B503C093B403F8018681863931F05F
:101C80008091B30381508093B30375C01092B30366
:101C900087818093B203833809F486C0A091AA0398
:101CA000B091AB0380EA93E08A1B9B0B8C179D07D6
:101CB00030F18AE0ECEAF3E001900D928A95E1F7C9
:101CC0008091AA039091AB036091B6037091B70322
:101CD0004091B4035091B5030A960E94911B8091E4
:101CE000B4039091B5030A962091AA033091AB03F7
:101CF000820F931F9093AB038093AA033CC0809103
:101D00000A0390910B030E94F709809105038160FB
:101D10008093050332C0A091AA03B091AB03CD011B
:101D2000805193408C0F9D1F8B39910530F588E0D1
:101D3000E2EEF2E001900D928A95E1F7E091AA03BC
:101D4000F091AB03D187C0878091AA039091AB0338
:101D5000AE016AEE72E00A960E94911BB2E0EB0EB1
:101D6000F11C8091AA039091AB03E80EF91EF0924A
:101D7000AB03E092AA0391E061C090E05FC023381A
:101D800051F688E0E2EEF2E0ACEAB3E001900D92A9
:101D90008A95E1F78AEE92E09093B7038093B603B9
:101DA000D093B503C093B40392E048C0F801878193
:101DB000873008F030CF4091B0035091B1032481B7
:101DC00035814217530749F44091AC035091AD035C
:101DD000208131814217530771F2B8E18B9FC00116
:101DE00011244091AA035091AB0320EA33E0241B55
:101DF000350B281739075CF48091050381608093C7
:101E0000050380910A0390910B030E94F70988E073
:101E1000E2EEF2E0ACEAB3E001900D928A95E1F7D0
:101E2000AE016AEE72E08091B6039091B7030E9412
:101E3000911BD093B503C093B40322CF892FDF91B8
:101E4000CF911F910F91FF90EF9008951F93CF9323
:101E5000DF93EC01162F61E00E94BE09482F112389
:101E600011F0416001C04E7F61E0CE01DF91CF9162
:101E70001F910C9463098F929F92AF92BF92CF9261
:101E8000DF92EF92FF92CF93DF93EC014A015B0167
:101E90000E941C086B017C0167E1CE010E94BE0913
:101EA00084FD29C06FEFCE010E94440984FFF4CF66
:101EB00040E167E0CE010E94630960E0CE010E942C
:101EC000130961E0CE010E9413090E941C08DC0185
:101ED000CB018C199D09AE09BF0988159905AA0582
:101EE000BB05D0F260E0CE010E941309CE010E9432
:101EF000600980E005C060E0CE010E94130981E026
:101F0000DF91CF91FF90EF90DF90CF90BF90AF9097
:101F10009F908F9008958F929F92AF92BF92CF9291
:101F2000DF92EF92FF920F931F93CF93DF93CDB782
:101F3000DEB728970FB6F894DEBF0FBECDBFF42EE4
:101F40000E94C00849015A016B018C018091050370
:101F500082FD06C080910A0390910B030E94F7094D
:101F600080910A0390910B03FF2011F060E001C003
:101F700061E00E94260FE0900A03F0900B03898233
:101F80009A82AB82BC82CD82DE820F831887F701F2
:101F90002685AE014F5F5F4F6AE0C7010E94870947
:101FA000F7012685AE014F5F5F4F60E1C7010E94D8
:101FB0008709F701478161E1C7010E946309D09059
:101FC0000F03E0900A03F0900B036FEFC7010E942C
:101FD000440980FF0DC06FEFC7010E94440984FFD0
:101FE000F4CF40E167E0C7010E94630910E02FC011
:101FF000F7011781012FD11608F40D2DF701808507
:10200000811102C0101B01C010E0C7010E943A09F3
:1020100080EA0E943D0982EEC82E82E0D82E0C0D87
:102020000C1531F0F60181916F010E943D09F8CF46
:10203000112329F080E00E943D091150F9CFC7011A
:102040000E94370961E0C7010E94130911E08091E5
:10205000050382FD16C04091DC025091DD026091C3
:10206000DE027091DF0280910A0390910B030E94BF
:102070003B0F182F60E080910A0390910B030E94A0
:10208000260F812F28960FB6F894DEBF0FBECDBF66
:10209000DF91CF911F910F91FF90EF90DF90CF9044
:1020A000BF90AF909F908F9008958F929F92AF9224
:1020B000BF92CF92DF92EF92FF920F931F93CF9335
:1020C000DF9390910503892F827091FD14C02091B8
:1020D000AA033091AB0390FD06C0A90140515340C3
:1020E0004937510544F02051334011F008F042C106
:1020F0009E7F9093050302EE12E0EE24E394F12C10
:10210000E4E2CE2EE9E0DE2EA0900A03B0900B03AD
:10211000F501808191818F3F910511F480E02AC102
:10212000F501828193818F3F9105C1F367E1C5017C
:102130000E94BE09C82FC17080FDF0CF6FEFC501AE
:102140000E944409A0900A03B0900B03C5010E94AD
:102150003A0980E60E943D098FEF0E943D09D82F81
:10216000C5010E943709D13208F45EC062EEC50194
:102170000E94440962E070E080E090E00E94E20783
:10218000C0930F03C83038F46AE070E080E090E05C
:102190000E94E207B9CFA0900A03B0900B03F501AB
:1021A00087818C1708F4C82FF5019085911103C021
:1021B000D82FDC1B01C0D0E0C5010E943A0981E69E
:1021C0000E943D0962EE862E62E0962EC00FC81571
:1021D00039F08FEF0E943D09F40181934F01F7CF51
:1021E000CD2FCC2329F08FEF0E943D09C150F9CFAC
:1021F000C5010E94370940E767E0C5010E946309F5
:102200002091E4023091E502C901009779F0AC0118
:1022100047705527463051050CF076CF53E0969520
:1022200087955A95E1F7F1CFCD2FAACF9091E8028B
:1022300040910D0350910E032417350709F042C059
:10224000923809F461CF903889F424323940F9F09A
:10225000D092E502C092E40262E084E299E00E943A
:10226000C7116AE070E080E090E04CC0933C79F4E4
:102270002115310561F03093E3022093E2021092C0
:10228000E5021092E40260E080E090E06FC080918F
:102290000403882319F097FF0CC002C0913C49F455
:1022A0008CE6890F833028F0983C19F0933809F0B8
:1022B00060C082EE92E00E94E00D823009F024CFEF
:1022C00083E858C02034310509F04EC0923C11F526
:1022D0008091050383FD18CF443289E0580709F443
:1022E00013CF8091E2029091E3029093E5028093F4
:1022F000E4025093E3024093E20260914A0470E0EA
:1023000080E090E00E94E20762E08091E402909118
:10231000E5022CC082EE92E00E94E00DC82F809171
:10232000DB028823E9F020910C03222379F030E0CE
:1023300021503109C901880F991F280F391FC70182
:1023400002C0880F991F2A95E2F702C080E090E052
:1023500064E023E0880F991F2A95E1F70E94C711D6
:10236000C23009F0D1CEACCF61E0C9010E94C711E3
:10237000CBCE892FDF91CF911F910F91FF90EF90DE
:10238000DF90CF90BF90AF909F908F900895CF92A5
:10239000DF92EF92FF920F931F93CF93DF9300D0C2
:1023A00000D0CDB7DEB77C019091E80297012115EE
:1023B000310571F0A901477055274630510534F4B5
:1023C00083E0369527958A95E1F7F1CF80E09BC0B1
:1023D000915401E09F3708F000E0162F19821A820D
:1023E0001B821C82FA82E9826B83CE0101960E94D5
:1023F000A00D4C816B8189819A810E948B0F1130D5
:1024000041F5811102C010E073C089819A818E1557
:102410009F0509F50023F9F081EC8093E802809193
:10242000E2029091E3029093E5028093E4029A83A2
:1024300089831B831C82CE0101960E94A00D88E037
:1024400080930F034C816B8189819A810E948B0F4D
:1024500002C08823C1F289819A818E159F0511F4EB
:1024600011E046C0112311F01330D1F70023C1F35E
:102470008091050382FF1AC04091DC025091DD0279
:102480006091DE027091DF0280910A0390910B034C
:102490000E943B0F809105038B7F8093050360E0D2
:1024A00080910A0390910B030E94260F80910A03EA
:1024B00090910B030E942C0A0E941C086B017C0166
:1024C0000E945510813C61F20E941C08AB01BC01C6
:1024D0004C195D096E097F098091E0029091E1023B
:1024E000A0E0B0E084179507A607B70748F78BCFA1
:1024F0008091050382FD06C080910A0390910B0331
:102500000E942C0A812F0F900F900F900F90DF9157
:10251000CF911F910F91FF90EF90DF90CF90089592
:10252000009769F0FC0101900020E9F73197AF01B5
:10253000481B590BBC018EE392E00C94750C80E0B3
:1025400090E00895EF92FF920F931F93CF93DF9344
:10255000EC01198218821B821A821D821C8261156D
:102560007105A9F17B01FB0101900020E9F731978A
:102570008F01061B170BB8016F5F7F4F80E090E063
:102580000E94C21A009759F0998388831B830A839B
:102590002C813D81232B81F4FC0110820DC08881A8
:1025A0009981009711F00E942A1A198218821D82BF
:1025B0001C821B821A820BC01D830C83B701DF9122
:1025C000CF911F910F91FF90EF900C94AC1BDF9176
:1025D000CF911F910F91FF90EF90089585E694E0C1
:1025E0000C94DB0ACF93DF93CDB7DEB7AF970FB66E
:1025F000F894DEBF0FBECDBF789484B5826084BDF1
:1026000084B5816084BD85B5826085BD85B58160F6
:1026100085BD80916E00816080936E001092810074
:10262000809181008260809381008091810081602F
:1026300080938100809180008160809380008091F0
:10264000B10084608093B1008091B000816080937C
:10265000B00080917A00846080937A0080917A0043
:10266000826080937A0080917A00816080937A0002
:1026700080917A00806880937A001092C10083E094
:102680008093020162E082E00E94810781E896E087
:102690009093040180930301809169008C7F826094
:1026A00080936900E89A62E083E00E94810762E01B
:1026B00084E00E94810762E085E00E948107E0914A
:1026C0004E02F0914F0282E08083E0914A02F09145
:1026D0004B021082E0914C02F0914D0280E1808328
:1026E00010925602E0915202F091530286E08083EC
:1026F000E0915002F0915102808180618083E091ED
:102700005002F0915102808188608083E0915002F4
:10271000F0915102808180688083E0915002F091B5
:10272000510280818F7D808380ED91E00E94901224
:1027300010920C0285E080930D020E944E0B809354
:10274000100263ED71E0CE018A960E94A21262ED42
:1027500071E0CE0101960E94A2126CED71E0CE01F3
:1027600082960E94A212AEA4BFA4A114B10409F4DF
:10277000D9C06EA07FA06114710409F4D3C0ED80AC
:10278000FE80E618F7080AA51BA5E114F104A9F4D8
:102790006AA17BA1C8010E94B31B8C01892B09F49B
:1027A000C1C069817A814D815E81C8010E94911BFF
:1027B0008D819E81080F191FEBCFF7FE02C06801C3
:1027C00005C08AA09BA06501C8012DC06AA17BA19C
:1027D000C8010E94B31B4C01892B01F15401A01ABE
:1027E000B10AA501B801C6010E94911BCA0CDB1CED
:1027F00069817A814D815E81C6010E94911B8D8124
:102800009E81C80ED91E0EA11FA1080D191D8EA5EF
:102810009FA58E0D9F1D9FA78EA7D8CFB801C6017B
:102820000E94AC1B7FC0B4010E94B31B009729F02B
:10283000860D971DCE0CDF1CF6CFCA14DB0409F4FD
:1028400071C08CA59DA58C159D0568F4B6016F5FC0
:102850007F4FC8010E94C21A009709F463C09BA76A
:102860008AA7DDA6CCA60EA51FA50150110917FD4C
:1028700059C04EA05FA04114510409F453C0CEA426
:10288000DFA4C114D10409F44DC0C414D50408F464
:1028900049C00C151D0518F0860101501109AAA4A4
:1028A000BBA46AA07BA0C50188248A94982C15013A
:1028B000200E311E2816390628F0B3010E94B31BE2
:1028C000009739F597FC2EC0480C591CC501840DA2
:1028D000951DA60144195509BC018E0D9F1D0E942E
:1028E0009A1B8EA59FA58E0D9F1D9FA78EA72AA51B
:1028F0003BA5F901E80FF91F10828AA59BA5698104
:102900007A814D815E81880D991D0E94911B840101
:10291000ACCF9C012A193B090217130708F04901A3
:102920000196C8CF8AA19BA10E942A1A89819A8107
:102930000E942A1A8AA59BA5009719F00E94A51843
:1029400003C060E070E0CB0170933D0260933C02F5
:102950000E94A50A80914D0490914E0420914F044D
:10296000309150048217930719F061E00E948107AB
:1029700080914F049091500420914D0430914E0469
:102980002817390719F061E00E9481070E94A50A03
:1029900060E08DE494E00E94130961E08DE494E02E
:1029A0000E941F0965E070E080E090E00E94E2076D
:1029B0004CE060E08DE494E00E9463094FE564E040
:1029C0008DE494E00E94630966E08DE494E00E9447
:1029D000BE09877D182F10628BE990E0A0E0B0E07F
:1029E00080935D0490935E04A0935F04B0936004B1
:1029F000412F66E08DE494E00E94630966E08DE477
:102A000094E00E94BE09811709F4E8C166E08DE4F4
:102A100094E00E94BE0966E08DE494E00E94BE0945
:102A200045E550E060E070E040935D0450935E0443
:102A300060935F0470936004482F477D66E08DE4E7
:102A400094E00E94630966E08DE494E00E94BE0970
:102A50008DE494E00E943A0980E50E943D0983E7F5
:102A60000E943D098DE494E00E94370940E06DE149
:102A70008DE494E00E94630940E06CE18DE494E011
:102A80000E9463091092550440E767E08DE494E0EA
:102A90000E9463094CE465E08DE494E00E946309C0
:102AA00062EE8DE494E00E9444098DE494E00E947B
:102AB00060098DE494E00E94DE0960E08DE494E01A
:102AC0000E94BE09482F4E7F60E08DE494E00E9492
:102AD000630944E364E08DE494E00E94630985E0C7
:102AE00090E090930E0380930D0380910A039091E0
:102AF0000B03FC01208131812F3F3105C1F0228180
:102B000033812F3F310509F06DC111C020934A0474
:102B100066E0D62EAA24A394B12CDA94FFEFDF123C
:102B2000E5C180910A0390910B030E942C0A40E1B9
:102B300050E067E171E085E694E00E94D70207E08B
:102B400011E0C12CD12C7601CA940E949718A701DC
:102B500096010E94E118F80161938F01F1E00731BD
:102B60001F0799F780E1E7E0F1E0A9E6B4E0019002
:102B70000D928A95E1F780E1809389048AE090E0E4
:102B800090932D0280932C028AA59BA50E942A1A5D
:102B900096EF892E99249A9428E2222E312C34E142
:102BA000E32EF12C4AE0442E512C612C712C0E9412
:102BB0005510C090AA03D090AB0320E1C21623E0C9
:102BC000D206B1F1A8F180911203909113030597F9
:102BD00081F70091180310911903A8010132110522
:102BE00010F040E250E06AE173E08CEE91E00E9468
:102BF000911BC401801B910BC80ED91ED092AB0350
:102C0000C092AA034AE950E0401B510BB801665E2E
:102C10007C4F80E193E00E949A1B20E130E04CE081
:102C200052E06CEE71E085E694E00E942C02C1CF88
:102C300080912C0290912D028431910551F14CF438
:102C4000009779F00A9709F0C6C081E080930E02E0
:102C50001BC08832910541F08336910509F48EC07E
:102C6000BAC010920E0210C080913A0290913B02BD
:102C70008C319C40D8F56AE070E080E090E00E94E2
:102C8000E2078FEF0E940E0BF0922D02E0922C02D1
:102C9000A2C088E780930F0210920C0295E09093F7
:102CA0000D0280913C0290913D029093120280931C
:102CB00013020E944E0B80933A0290933B02909332
:102CC0001002809311020E946A0B882329F030922F
:102CD0002D0220922C027FC086E40E940E0BEAE0B7
:102CE000F0E0F0932D02E0932C0275C00E94BD0726
:102CF000009136021091370220913802309139024A
:102D00005B016C01A01AB10AC20AD30AA60195019F
:102D1000A0923202B0923302C0923402D0923502B5
:102D200019A28E010F5D1F4FCA01B901A3019201C3
:102D30000E944A19605DF80162938F0121153105E7
:102D40004105510589F7CF010E94901280ED91E075
:102D50000E94901261E070E080E090E00E94E20743
:102D600081E60E940E0B0E94BD07609336027093AD
:102D70003702809338029093390286CF0E941C0854
:102D800000912E0210912F022091300230913102D9
:102D9000DC01CB01801B910BA20BB30B893E93404E
:102DA000A105B105C0F00E941C0860932E0270932B
:102DB0002F02809330029093310287ECA82EA092CC
:102DC0000F020E946A0B811106C064E670E080E089
:102DD00090E00E94E2070E94A301E9CE81E0809387
:102DE000530414CE4AE565E00E94630960E08091D7
:102DF0000A0390910B030E94260F00910A03109181
:102E00000B036DE1C8010E94BE09482F44606DE1CB
:102E1000C8010E9463096CE1C8010E94BE09482FE5
:102E20004F636CE1C8010E94630981E0F80180876B
:102E300080910D0390910E0366E070E00E947B1973
:102E4000482F440F4B5FF0E14F9FA00111244560D4
:102E500064E080910A0390910B030E94630989E169
:102E600090E0A0E0B0E08093DC029093DD02A093BC
:102E7000DE02B093DF028BE490E09093E102809356
:102E8000E00220910D0330910E0340E08FEF9FEFA1
:102E9000BC0162237323672B39F0B3E0880F991FBD
:102EA000BA95E1F74F5FF4CF40930C03809590956E
:102EB00090934C0480934B04A3E096958795AA9534
:102EC000E1F7AC0142235323509349044093480453
:102ED000009709F41BCEE3E036952795EA95E1F7D4
:102EE000F3E096958795FA95E1F7F2CF6D2D85E0A1
:102EF00090E00E94C00800910A0310910B032AA3DE
:102F00003BA34CA35DA36EA37FA388A799A7ED2C39
:102F1000F12CD1100BC0F801468550E0BE016E5D6A
:102F20007F4FC80109960E94911B03C0F1E0DF1298
:102F300007C0F701E153FD4F6491F801268505C0F4
:102F4000F701E153FD4F649121E0AE014E5D5F4F0B
:102F5000C8010E948709F701E753FD4F6491F8010A
:102F60004781C8010E94630962E0C8010E94BE094E
:102F7000F701ED53FD4FE491950101C0220FEA9551
:102F8000EAF7482F422B62E0C8010E946309C5CDD1
:102F9000EEE3F2E01382128288EE93E0A0E0B0E06C
:102FA00084839583A683B78384E491E091838083AF
:102FB00085EC90E09587848784EC90E097878687FE
:102FC00080EC90E0918B808B81EC90E0938B828BF6
:102FD00082EC90E0958B848B86EC90E0978B868BCF
:102FE000118E128E138E148EE5E6F4E080E184A338
:102FF0008EEB91E0918380838AEA91E096A385A38A
:103000008AE087A38FE894E091A780A78AE894E0FC
:1030100093838283EDE4F4E08AE090E091838083FF
:1030200089E090E093838283168280E28783108612
:1030300085E0868785E090E0A0E0B0E0848B958B0A
:10304000A68BB78B1186ABEDB2E0D096FC93EE93D6
:103050009F9780E193E09093AB038093AA0388EB62
:1030600093E09093B7038093B6038CEA93E098962D
:103070009C938E9397979B961D921D921D921C92E6
:103080009E979A961C929A9799961C9299971C9241
:1030900008958F929F92AF92BF92CF92DF92EF925C
:1030A000FF92CF93DF93EC01688179818A819B81C4
:1030B000611571058105910521F464E279ED8BE5D7
:1030C00097E02DE133EF41E050E00E94E118490123
:1030D0005A019B01AC01A7EAB1E40E9400196B01FF
:1030E0007C01ACEEB4EFA50194010E940E19DC0145
:1030F000CB018C0D9D1DAE1DBF1DB7FF03C00197F9
:10310000A109B04888839983AA83BB83BC01CD0100
:103110009F77DF91CF91FF90EF90DF90CF90BF909E
:10312000AF909F908F9008950E944918089587E26C
:1031300091E00E9449180895609327017093280137
:103140008093290190932A0108951F93FC019927E8
:103150008827BC01E89411911032E9F3193010F07E
:103160001E30C8F31B3251F01D3249F4689406C07A
:103170000E94CC18610F711D811D911D119110537A
:103180001A30B0F33EF490958095709561957F4F1D
:103190008F4F9F4F1F910895592F482F372F262F5C
:1031A000660F771F881F991F660F771F881F991F4B
:1031B000620F731F841F951F660F771F881F991F4B
:1031C0000895052E97FB1EF400940E94F81857FDF1
:1031D00007D00E944A1907FC03D04EF40C94F8184B
:1031E00050954095309521953F4F4F4F5F4F089533
:1031F00090958095709561957F4F8F4F9F4F089563
:103200000E946C19A59F900DB49F900DA49F800DF6
:10321000911D11240895B7FF0C9400190E94001904
:10322000821B930B08952F923F924F925F926F9261
:103230007F928F929F92AF92BF92CF92DF92EF9246
:10324000FF920F931F93CF93DF93CDB7DEB7CA1BC7
:10325000DB0B0FB6F894DEBF0FBECDBF09942A88F2
:10326000398848885F846E847D848C849B84AA849A
:10327000B984C884DF80EE80FD800C811B81AA8127
:10328000B981CE0FD11D0FB6F894DEBF0FBECDBFF2
:10329000ED010895A1E21A2EAA1BBB1BFD010DC072
:1032A000AA1FBB1FEE1FFF1FA217B307E407F507F6
:1032B00020F0A21BB30BE40BF50B661F771F881FD2
:1032C000991F1A9469F760957095809590959B0168
:1032D000AC01BD01CF010895A29FB001B39FC00111
:1032E000A39F700D811D1124911DB29F700D811D32
:1032F0001124911D0895AA1BBB1B51E107C0AA1FF1
:10330000BB1FA617B70710F0A61BB70B881F991F86
:103310005A95A9F780959095BC01CD010895EE0FBF
:10332000FF1F0590F491E02D0994CF93DF93823035
:10333000910510F482E090E0E0914105F0914205A2
:1033400020E030E0C0E0D0E0309711F140815181C1
:1033500048175907C0F04817590761F482819381D3
:10336000209719F09B838A832BC09093420580930A
:10337000410526C02115310519F04217530718F4ED
:103380009A01BE01DF01EF010280F381E02DDCCF65
:103390002115310509F1281B390B2430310590F432
:1033A00012968D919C9113976115710521F0FB0187
:1033B0009383828304C09093420580934105FD016D
:1033C000329644C0FD01E20FF31F81939193225086
:1033D00031092D933C933AC020913F05309140052F
:1033E000232B41F420912D0130912E013093400583
:1033F00020933F0520912B0130912C01211531059F
:1034000041F42DB73EB740912F0150913001241B5C
:10341000350BE0913F05F0914005E217F307A0F46A
:103420002E1B3F0B2817390778F0AC014E5F5F4F1A
:103430002417350748F04E0F5F1F50934005409307
:103440003F058193919302C0E0E0F0E0CF01DF916E
:10345000CF9108950F931F93CF93DF93009709F4B3
:103460008CC0FC01329713821282009141051091A9
:1034700042050115110581F420813181820F931FCE
:1034800020913F05309140052817390779F5F093D1
:103490004005E0933F0571C0D80140E050E0AE1711
:1034A000BF0750F412962D913C911397AD01211551
:1034B000310509F1D901F3CF9D01DA01338322836C
:1034C00060817181860F971F8217930769F4EC0161
:1034D00028813981260F371F2E5F3F4F318320838C
:1034E0008A819B8193838283452B29F4F093420543
:1034F000E093410542C01396FC93EE931297ED01C1
:10350000499159919E01240F351FE217F30771F479
:1035100080819181840F951F029611969C938E93C2
:103520008281938113969C938E931297E0E0F0E052
:10353000D80112968D919C911397009719F0F8017C
:103540008C01F6CF8D919C9198012E5F3F4F820F99
:10355000931F20913F05309140052817390769F4E2
:10356000309729F4109242051092410502C013824F
:1035700012821093400500933F05DF91CF911F9178
:103580000F910895A0E0B0E0E8ECFAE10C9417196F
:10359000EC01009721F4CB010E949519B8C0FC0101
:1035A000E60FF71F9C0122503109E217F30708F4D8
:1035B000ACC0D9010D911C91119706171707B0F0F7
:1035C0000530110508F49FC0C801049786179707B6
:1035D00008F499C002501109061B170B01931193AF
:1035E0006D937C93CF010E942A1A8DC05B01A01AB3
:1035F000B10A4C01800E911EA0914105B091420587
:1036000040E050E0E12CF12C109709F44AC0A815D5
:10361000B905D1F56D907C901197630182E0C80ED9
:10362000D11CCA14DB0480F1A3014A195B096A01A9
:1036300082E0C80ED11C1296BC9012971396AC91E2
:10364000B5E0CB16D10440F0B282A383518340830E
:10365000D9016D937C930AC00E5F1F4FC301800F89
:10366000911FF90191838083EB2DFA2FE114F1046E
:1036700031F0D7011396FC93EE93129744C0F09368
:103680004205E09341053FC08D919C9111974817E9
:10369000590708F4AC017D0112960D90BC91A02D44
:1036A000B3CF80913F059091400588159905E1F4CD
:1036B00046175707C8F480912B0190912C01009771
:1036C00041F48DB79EB740912F0150913001841B7A
:1036D000950BE817F907C8F4F0934005E0933F0510
:1036E000F901718360830FC0CB010E9495197C01A1
:1036F000009759F0A801BE010E94911BCE010E94C3
:103700002A1AC70104C0CE0102C080E090E0CDB704
:10371000DEB7EEE00C94331981E090E0F8940C945D
:10372000CD1BFB01DC0102C001900D9241505040C5
:10373000D8F708956817790768F4FB01DC01E40FF6
:10374000F51FA40FB51F02C002900E9241505040C9
:10375000D8F708950C94911BFB01DC0101900D92A8
:103760000020E1F70895FB0151915523A9F0BF0115
:10377000DC014D9145174111E1F759F4CD0101905C
:10378000002049F04D9140154111C9F3FB01411151
:10379000EFCF81E090E00197089511E0CCE6D1E011
:1037A00004C0FE010E948F192196CD36D107C9F7BA
:0437B000F894FFCFBB
:1037B400010001040204025C39387B36606823345A
:1037C40034765C342262555C39387B366068233445
:1037D40034765C3422625501000000000043058009
:1037E40000001B362D6C775A41C33C33CE3EE3ECCC
:1037F40000000000DF0C750CA40C260D9701B30C1F
:10380400C70C00000000000000008F068F068F0622
:103814008F068F068F068F0600000000720A870A43
:1038240015031203D70291067E022C020F02000038
:103834000000000000008F068F068F068F068F069B
:103844008F0600000000000000007B068F068F0634
:10385400F605E904210300000000910A9B0A7B0697
:103864007E06A306F605E904210300000000DB0A36
:10387400EB0A15031203D70291067E022C020F02F3
:0E3884000D0A0030383A30333A3534003A003D
:107800000C94343C0C94513C0C94513C0C94513CE1
:107810000C94513C0C94513C0C94513C0C94513CB4
:107820000C94513C0C94513C0C94513C0C94513CA4
:107830000C94513C0C94513C0C94513C0C94513C94
:107840000C94513C0C94513C0C94513C0C94513C84
:107850000C94513C0C94513C0C94513C0C94513C74
:107860000C94513C0C94513C11241FBECFEFD8E036
:10787000DEBFCDBF11E0A0E0B1E0ECE9FFE702C060
:1078800005900D92A230B107D9F712E0A2E0B1E065
:1078900001C01D92AD30B107E1F70E942D3D0C945F
:1078A000CC3F0C94003C982F959595959595959582
:1078B000905D8F708A307CF0282F295A8091C0000B
:1078C00085FFFCCF9093C6008091C00085FFFCCF60
:1078D0002093C6000895282F205DF0CF982F809127
:1078E000C00085FFFCCF9093C6000895EF92FF92F1
:1078F0000F931F93EE24FF2487018091C00087FD22
:1079000017C00894E11CF11C011D111D81E4E8164B
:1079100082E4F8068FE0080780E0180770F3E09132
:107920000401F091050109958091C00087FFE9CF1E
:107930008091C6001F910F91FF90EF9008950E94D3
:10794000763C982F8091C00085FFFCCF9093C600B5
:1079500091362CF490330CF09053892F089597555D
:10796000892F08951F930E949F3C182F0E949F3CCF
:107970001295107F810F1F9108951F93182F882350
:1079800021F00E94763C1150E1F71F9108951F935A
:10799000182F0E94763C803249F0809103018F5F5E
:1079A000809303018530C1F01F9108958091C0003C
:1079B00085FFFCCF84E18093C6008091C00085FFE5
:1079C000FCCF1093C6008091C00085FFFCCF80E102
:1079D0008093C6001F910895E0910401F091050184
:1079E00009951F9108950E94763C803241F0809164
:1079F00003018F5F80930301853081F008958091AA
:107A0000C00085FFFCCF84E18093C6008091C00058
:107A100085FFFCCF80E18093C6000895E0910401CA
:107A2000F09105010995089540E951E08823A1F0FE
:107A30002D9A28EE33E0FA013197F1F721503040CA
:107A4000D1F72D9828EE33E0FA013197F1F7215064
:107A50003040D1F7815061F708953F924F925F9285
:107A60006F927F928F929F92AF92BF92CF92DF924E
:107A7000EF92FF920F931F93CF93DF93000080E16B
:107A80008093C4001092C50088E18093C10086E015
:107A90008093C2005098589A259A81E00E94143D24
:107AA00024E1F22E9EE1E92E85E9D82E0FE0C02ECA
:107AB00010E1B12EAA24A394B1E49B2EA6E58A2E50
:107AC000F2E57F2EE0E26E2E79E4572E63E5462E36
:107AD00050E5352E0E94763C8033B1F18133B9F107
:107AE000803409F46FC0813409F476C0823409F41B
:107AF00085C0853409F488C0803531F1823521F1A3
:107B0000813511F1853509F485C0863509F48DC0BC
:107B1000843609F496C0843709F403C1853709F423
:107B200072C1863709F466C0809103018F5F80932C
:107B30000301853079F6E0910401F0910501099582
:107B40000E94763C803351F60E94F33CC3CF0E94E2
:107B5000763C803249F78091C00085FFFCCFF092DF
:107B6000C6008091C00085FFFCCF9092C600809136
:107B7000C00085FFFCCF8092C6008091C00085FFC9
:107B8000FCCF7092C6008091C00085FFFCCF609250
:107B9000C6008091C00085FFFCCF5092C600809146
:107BA000C00085FFFCCF4092C6008091C00085FFD9
:107BB000FCCF3092C6008091C00085FFFCCFB09210
:107BC000C60088CF0E94763C863808F4BDCF0E945C
:107BD000763C0E94F33C7ECF0E94763C803809F4CC
:107BE0009CC0813809F40BC1823809F43CC1883942
:107BF00009F48FC080E00E94C73C6CCF84E10E94F2
:107C0000BD3C0E94F33C66CF85E00E94BD3C0E94D3
:107C1000F33C60CF0E94763C809306010E94763C44
:107C2000809307010E94F33C55CF0E94763C80333D
:107C300009F41DC183E00E94BD3C80E00E94C73C66
:107C400049CF0E94763C809309020E94763C809343
:107C5000080280910C028E7F80930C020E94763C79
:107C6000853409F415C18091080290910902892B8D
:107C700089F000E010E00E94763CF801E85FFE4FDA
:107C800080830F5F1F4F80910802909109020817AF
:107C9000190788F30E94763C803209F045CF809125
:107CA0000C0280FF01C16091060170910701660F0F
:107CB000771F7093070160930601A0910802B091AD
:107CC00009021097C9F0E8E0F1E09B01AD014E0F09
:107CD0005F1FF999FECF32BD21BD819180BDFA9A17
:107CE000F99A2F5F3F4FE417F50799F76A0F7B1F4B
:107CF00070930701609306018091C00085FFFCCF5F
:107D0000F092C6008091C00085FFFCCFB092C60003
:107D1000E1CE83E00E94C73CDDCE82E00E94C73CFA
:107D2000D9CE0E94763C809309020E94763C8093D3
:107D300008028091060190910701880F991F909386
:107D40000701809306010E94763C853409F4A6C0A1
:107D500080910C028E7F80930C020E94763C8032D0
:107D600009F0B8CE8091C00085FFFCCFF092C6002C
:107D7000609108027091090261157105B9F140E046
:107D800050E080910C02A82FA170B82FB27011C0E2
:107D9000BB2309F45CC0E0910601F0910701319624
:107DA000F0930701E09306014F5F5F4F46175707B7
:107DB000E8F4AA2369F3F999FECF209106013091E6
:107DC000070132BD21BDF89A90B58091C00085FFB2
:107DD000FCCF9093C6002F5F3F4F30930701209355
:107DE00006014F5F5F4F4617570718F38091C00099
:107DF00085FDE5CE8091C00085FFF8CFE0CE81E023
:107E00000E94C73C67CE0E94763C803209F08CCE3F
:107E10008091C00085FFFCCFF092C6008091C00029
:107E200085FFFCCFE092C6008091C00085FFFCCFAB
:107E3000D092C6008091C00085FFFCCFC092C600E2
:107E40008091C00085FFFCCFB092C60043CEE09188
:107E50000601F091070194918091C00085FFFCCF4D
:107E60009093C6009CCF80E10E94C73C33CE0E9415
:107E7000763C0E94763C182F0E94763C112309F430
:107E800083C0113009F484C08FE00E94C73C22CE29
:107E900080910C02816080930C02E5CE80910C02EF
:107EA000816080930C0259CF809107018823880F4D
:107EB000880B8A2180930B02809106019091070123
:107EC000880F991F90930701809306018091080203
:107ED00080FF09C080910802909109020196909359
:107EE000090280930802F894F999FECF1127E091D6
:107EF0000601F0910701C8E0D1E08091080290915D
:107F00000902103091F40091570001700130D9F34B
:107F100003E000935700E89500915700017001308D
:107F2000D9F301E100935700E89509901990009169
:107F3000570001700130D9F301E000935700E89534
:107F40001395103498F011270091570001700130FB
:107F5000D9F305E000935700E895009157000170B0
:107F60000130D9F301E100935700E895329602976A
:107F700009F0C7CF103011F00296E5CF112480919F
:107F8000C00085FFB9CEBCCE8EE10E94C73CA2CD19
:0C7F900085E90E94C73C9ECDF894FFCF0D
:027F9C00800063
:040000030000780081
:00000001FF